{
	"data": {
		"bytecode": {
			"linkReferences": {},
			"object": "6080604052348015600e575f5ffd5b506101b38061001c5f395ff3fe608060405234801561000f575f5ffd5b5060043610610034575f3560e01c8063471f7cdf146100385780636057361d14610056575b5f5ffd5b610040610072565b60405161004d91906100ab565b60405180910390f35b610070600480360381019061006b91906100f2565b610077565b005b5f5481565b805f8190555060015f5461008b919061014a565b5f8190555050565b5f819050919050565b6100a581610093565b82525050565b5f6020820190506100be5f83018461009c565b92915050565b5f5ffd5b6100d181610093565b81146100db575f5ffd5b50565b5f813590506100ec816100c8565b92915050565b5f60208284031215610107576101066100c4565b5b5f610114848285016100de565b91505092915050565b7f4e487b71000000000000000000000000000000000000000000000000000000005f52601160045260245ffd5b5f61015482610093565b915061015f83610093565b92508282019050808211156101775761017661011d565b5b9291505056fea2646970667358221220bb09d4fec2b90c9a9320d86b7c50ab49d6b7f1d92c3ec297c2f4ab444dec981f64736f6c634300081e0033",
			"opcodes": "PUSH1 0x80 PUSH1 0x40 MSTORE CALLVALUE DUP1 ISZERO PUSH1 0xE JUMPI PUSH0 PUSH0 REVERT JUMPDEST POP PUSH2 0x1B3 DUP1 PUSH2 0x1C PUSH0 CODECOPY PUSH0 RETURN INVALID PUSH1 0x80 PUSH1 0x40 MSTORE CALLVALUE DUP1 ISZERO PUSH2 0xF JUMPI PUSH0 PUSH0 REVERT JUMPDEST POP PUSH1 0x4 CALLDATASIZE LT PUSH2 0x34 JUMPI PUSH0 CALLDATALOAD PUSH1 0xE0 SHR DUP1 PUSH4 0x471F7CDF EQ PUSH2 0x38 JUMPI DUP1 PUSH4 0x6057361D EQ PUSH2 0x56 JUMPI JUMPDEST PUSH0 PUSH0 REVERT JUMPDEST PUSH2 0x40 PUSH2 0x72 JUMP JUMPDEST PUSH1 0x40 MLOAD PUSH2 0x4D SWAP2 SWAP1 PUSH2 0xAB JUMP JUMPDEST PUSH1 0x40 MLOAD DUP1 SWAP2 SUB SWAP1 RETURN JUMPDEST PUSH2 0x70 PUSH1 0x4 DUP1 CALLDATASIZE SUB DUP2 ADD SWAP1 PUSH2 0x6B SWAP2 SWAP1 PUSH2 0xF2 JUMP JUMPDEST PUSH2 0x77 JUMP JUMPDEST STOP JUMPDEST PUSH0 SLOAD DUP2 JUMP JUMPDEST DUP1 PUSH0 DUP2 SWAP1 SSTORE POP PUSH1 0x1 PUSH0 SLOAD PUSH2 0x8B SWAP2 SWAP1 PUSH2 0x14A JUMP JUMPDEST PUSH0 DUP2 SWAP1 SSTORE POP POP JUMP JUMPDEST PUSH0 DUP2 SWAP1 POP SWAP2 SWAP1 POP JUMP JUMPDEST PUSH2 0xA5 DUP2 PUSH2 0x93 JUMP JUMPDEST DUP3 MSTORE POP POP JUMP JUMPDEST PUSH0 PUSH1 0x20 DUP3 ADD SWAP1 POP PUSH2 0xBE PUSH0 DUP4 ADD DUP5 PUSH2 0x9C JUMP JUMPDEST SWAP3 SWAP2 POP POP JUMP JUMPDEST PUSH0 PUSH0 REVERT JUMPDEST PUSH2 0xD1 DUP2 PUSH2 0x93 JUMP JUMPDEST DUP2 EQ PUSH2 0xDB JUMPI PUSH0 PUSH0 REVERT JUMPDEST POP JUMP JUMPDEST PUSH0 DUP2 CALLDATALOAD SWAP1 POP PUSH2 0xEC DUP2 PUSH2 0xC8 JUMP JUMPDEST SWAP3 SWAP2 POP POP JUMP JUMPDEST PUSH0 PUSH1 0x20 DUP3 DUP5 SUB SLT ISZERO PUSH2 0x107 JUMPI PUSH2 0x106 PUSH2 0xC4 JUMP JUMPDEST JUMPDEST PUSH0 PUSH2 0x114 DUP5 DUP3 DUP6 ADD PUSH2 0xDE JUMP JUMPDEST SWAP2 POP POP SWAP3 SWAP2 POP POP JUMP JUMPDEST PUSH32 0x4E487B7100000000000000000000000000000000000000000000000000000000 PUSH0 MSTORE PUSH1 0x11 PUSH1 0x4 MSTORE PUSH1 0x24 PUSH0 REVERT JUMPDEST PUSH0 PUSH2 0x154 DUP3 PUSH2 0x93 JUMP JUMPDEST SWAP2 POP PUSH2 0x15F DUP4 PUSH2 0x93 JUMP JUMPDEST SWAP3 POP DUP3 DUP3 ADD SWAP1 POP DUP1 DUP3 GT ISZERO PUSH2 0x177 JUMPI PUSH2 0x176 PUSH2 0x11D JUMP JUMPDEST JUMPDEST SWAP3 SWAP2 POP POP JUMP INVALID LOG2 PUSH5 0x6970667358 0x22 SLT KECCAK256 0xBB MULMOD 0xD4 INVALID 0xC2 0xB9 0xC SWAP11 SWAP4 KECCAK256 0xD8 PUSH12 0x7C50AB49D6B7F1D92C3EC297 0xC2 DELEGATECALL 0xAB PREVRANDAO 0x4D EOFCREATE 0x98 0x1F PUSH5 0x736F6C6343 STOP ADDMOD 0x1E STOP CALLER "
		},
		"gasEstimates": {
			"creation": {
				"codeDepositCost": "87000",
				"executionCost": "133",
				"totalCost": "87133"
			},
			"external": {
				"favoriteNumber()": "2402",
				"store(uint256)": "infinite"
			}
		},
		"methodIdentifiers": {
			"favoriteNumber()": "471f7cdf",
			"store(uint256)": "6057361d"
		}
	},
	"abi": [
		{
			"inputs": [],
			"name": "favoriteNumber",
			"outputs": [
				{
					"internalType": "uint256",
					"name": "",
					"type": "uint256"
				}
			],
			"stateMutability": "view",
			"type": "function"
		},
		{
			"inputs": [
				{
					"internalType": "uint256",
					"name": "_favoriteNumber",
					"type": "uint256"
				}
			],
			"name": "store",
			"outputs": [],
			"stateMutability": "nonpayable",
			"type": "function"
		}
	]
}